{
    "contractName": "NFTAuction",
    "abi": [
        {
            "inputs": [
                {
                    "internalType": "contract IERC721",
                    "name": "_nft",
                    "type": "address"
                },
                {
                    "internalType": "contract IERC20",
                    "name": "_paymentToken",
                    "type": "address"
                }
            ],
            "stateMutability": "nonpayable",
            "type": "constructor"
        },
        {
            "anonymous": false,
            "inputs": [
                {
                    "indexed": true,
                    "internalType": "uint256",
                    "name": "tokenId",
                    "type": "uint256"
                }
            ],
            "name": "AuctionCancelled",
            "type": "event"
        },
        {
            "anonymous": false,
            "inputs": [
                {
                    "indexed": true,
                    "internalType": "uint256",
                    "name": "tokenId",
                    "type": "uint256"
                },
                {
                    "indexed": false,
                    "internalType": "uint256",
                    "name": "price",
                    "type": "uint256"
                },
                {
                    "indexed": false,
                    "internalType": "uint256",
                    "name": "endTime",
                    "type": "uint256"
                }
            ],
            "name": "AuctionCreated",
            "type": "event"
        },
        {
            "anonymous": false,
            "inputs": [
                {
                    "indexed": true,
                    "internalType": "uint256",
                    "name": "tokenId",
                    "type": "uint256"
                },
                {
                    "indexed": true,
                    "internalType": "address",
                    "name": "winner",
                    "type": "address"
                },
                {
                    "indexed": false,
                    "internalType": "uint256",
                    "name": "winningBid",
                    "type": "uint256"
                }
            ],
            "name": "AuctionEnded",
            "type": "event"
        },
        {
            "anonymous": false,
            "inputs": [
                {
                    "indexed": true,
                    "internalType": "uint256",
                    "name": "tokenId",
                    "type": "uint256"
                },
                {
                    "indexed": true,
                    "internalType": "address",
                    "name": "bidder",
                    "type": "address"
                },
                {
                    "indexed": false,
                    "internalType": "uint256",
                    "name": "bidAmount",
                    "type": "uint256"
                }
            ],
            "name": "HighestBidIncreased",
            "type": "event"
        },
        {
            "anonymous": false,
            "inputs": [
                {
                    "indexed": true,
                    "internalType": "address",
                    "name": "previousOwner",
                    "type": "address"
                },
                {
                    "indexed": true,
                    "internalType": "address",
                    "name": "newOwner",
                    "type": "address"
                }
            ],
            "name": "OwnershipTransferred",
            "type": "event"
        },
        {
            "inputs": [
                {
                    "internalType": "uint256",
                    "name": "",
                    "type": "uint256"
                }
            ],
            "name": "auctions",
            "outputs": [
                {
                    "internalType": "address",
                    "name": "seller",
                    "type": "address"
                },
                {
                    "internalType": "uint256",
                    "name": "tokenId",
                    "type": "uint256"
                },
                {
                    "internalType": "uint256",
                    "name": "price",
                    "type": "uint256"
                },
                {
                    "internalType": "uint256",
                    "name": "endTime",
                    "type": "uint256"
                },
                {
                    "internalType": "address",
                    "name": "highestBidder",
                    "type": "address"
                },
                {
                    "internalType": "uint256",
                    "name": "highestBid",
                    "type": "uint256"
                }
            ],
            "stateMutability": "view",
            "type": "function"
        },
        {
            "inputs": [
                {
                    "internalType": "uint256",
                    "name": "tokenId",
                    "type": "uint256"
                },
                {
                    "internalType": "uint256",
                    "name": "amount",
                    "type": "uint256"
                }
            ],
            "name": "bid",
            "outputs": [],
            "stateMutability": "nonpayable",
            "type": "function"
        },
        {
            "inputs": [
                {
                    "internalType": "uint256",
                    "name": "tokenId",
                    "type": "uint256"
                }
            ],
            "name": "cancelAuction",
            "outputs": [],
            "stateMutability": "nonpayable",
            "type": "function"
        },
        {
            "inputs": [
                {
                    "internalType": "uint256",
                    "name": "tokenId",
                    "type": "uint256"
                },
                {
                    "internalType": "uint256",
                    "name": "price",
                    "type": "uint256"
                },
                {
                    "internalType": "uint256",
                    "name": "duration",
                    "type": "uint256"
                }
            ],
            "name": "createAuction",
            "outputs": [],
            "stateMutability": "nonpayable",
            "type": "function"
        },
        {
            "inputs": [
                {
                    "internalType": "uint256",
                    "name": "tokenId",
                    "type": "uint256"
                }
            ],
            "name": "endAuction",
            "outputs": [],
            "stateMutability": "nonpayable",
            "type": "function"
        },
        {
            "inputs": [],
            "name": "nft",
            "outputs": [
                {
                    "internalType": "contract IERC721",
                    "name": "",
                    "type": "address"
                }
            ],
            "stateMutability": "view",
            "type": "function"
        },
        {
            "inputs": [],
            "name": "owner",
            "outputs": [
                {
                    "internalType": "address",
                    "name": "",
                    "type": "address"
                }
            ],
            "stateMutability": "view",
            "type": "function"
        },
        {
            "inputs": [],
            "name": "paymentToken",
            "outputs": [
                {
                    "internalType": "contract IERC20",
                    "name": "",
                    "type": "address"
                }
            ],
            "stateMutability": "view",
            "type": "function"
        },
        {
            "inputs": [],
            "name": "renounceOwnership",
            "outputs": [],
            "stateMutability": "nonpayable",
            "type": "function"
        },
        {
            "inputs": [
                {
                    "internalType": "uint256",
                    "name": "tokenId",
                    "type": "uint256"
                }
            ],
            "name": "retrieveFunds",
            "outputs": [],
            "stateMutability": "nonpayable",
            "type": "function"
        },
        {
            "inputs": [
                {
                    "internalType": "address",
                    "name": "newOwner",
                    "type": "address"
                }
            ],
            "name": "transferOwnership",
            "outputs": [],
            "stateMutability": "nonpayable",
            "type": "function"
        }
    ],
    "bytecode": "60c060405234801561001057600080fd5b506040516200144438038062001444833981016040819052610031916100b9565b61003a33610051565b6001600160a01b039182166080521660a0526100f3565b600080546001600160a01b038381166001600160a01b0319831681178455604051919092169283917f8be0079c531659141344cd1fd0a4f28419497f9722a3daafe3b4186f6b6457e09190a35050565b6001600160a01b03811681146100b657600080fd5b50565b600080604083850312156100cc57600080fd5b82516100d7816100a1565b60208401519092506100e8816100a1565b809150509250929050565b60805160a0516112f56200014f6000396000818160b301528181610458015281816108150152610dbd01526000818160f701528181610620015281816107aa015281816108a901528181610a2e0152610ba401526112f56000f3fe608060405234801561001057600080fd5b50600436106100a95760003560e01c80638da5cb5b116100715780638da5cb5b146101c857806396b5a755146101d9578063b9a2de3a146101ec578063cda4beef146101ff578063f2fde38b14610212578063fc41491e1461022557600080fd5b80633013ce29146100ae57806347ccca02146100f2578063571a26a014610119578063598647f8146101ab578063715018a6146101c0575b600080fd5b6100d57f000000000000000000000000000000000000000000000000000000000000000081565b6040516001600160a01b0390911681526020015b60405180910390f35b6100d57f000000000000000000000000000000000000000000000000000000000000000081565b61016c610127366004611146565b60016020819052600091825260409091208054918101546002820154600383015460048401546005909401546001600160a01b03958616959394929391929091169086565b604080516001600160a01b03978816815260208101969096528501939093526060840191909152909216608082015260a081019190915260c0016100e9565b6101be6101b936600461115f565b610238565b005b6101be6104be565b6000546001600160a01b03166100d5565b6101be6101e7366004611146565b6104d2565b6101be6101fa366004611146565b610682565b6101be61020d366004611181565b610889565b6101be6102203660046111c2565b610c0e565b6101be610233366004611146565b610c87565b6000828152600160205260409020600381015442106102925760405162461bcd60e51b8152602060048201526011602482015270105d58dd1a5bdb881a185cc8195b991959607a1b60448201526064015b60405180910390fd5b80600201548210156103055760405162461bcd60e51b815260206004820152603660248201527f426964206d7573742062652067726561746572207468616e206f7220657175616044820152756c20746f207468652063757272656e7420707269636560501b6064820152608401610289565b806005015482116103695760405162461bcd60e51b815260206004820152602860248201527f426964206d7573742062652067726561746572207468616e20746865206869676044820152671a195cdd08189a5960c21b6064820152608401610289565b80546001600160a01b031633036103d15760405162461bcd60e51b815260206004820152602660248201527f53656c6c65722063616e6e6f7420626964206f6e207468656972206f776e20616044820152653ab1ba34b7b760d11b6064820152608401610289565b806003015442106103ea576103e583610682565b505050565b60048101546001600160a01b0316156103e5576004810180546001600160a01b031916339081179091556005820183905560009081526006820160205260408120805484929061043b9084906111e6565b909155505060048101546005820154610482916001600160a01b037f0000000000000000000000000000000000000000000000000000000000000000811692911690610de8565b604051828152339084907fda0a18da71d8ebd145966339a728fc0d8ccc07c22870d561890d823c515dda6b9060200160405180910390a3505050565b6104c6610e3a565b6104d06000610e94565b565b600081815260016020526040902080546001600160a01b031633146105315760405162461bcd60e51b81526020600482015260156024820152742cb7ba93b932903737ba103a34329039b2b63632b960591b6044820152606401610289565b6005810154156105835760405162461bcd60e51b815260206004820152601860248201527f41756374696f6e20616c726561647920686173206269647300000000000000006044820152606401610289565b600082815260016020819052604080832080546001600160a01b03199081168255928101849055600281018490556003810184905560048101805490931690925560059091018290555183917f2809c7e17bf978fbc7194c0a694b638c4215e9140cacc6c38ca36010b45697df91a280546040516323b872dd60e01b81523060048201526001600160a01b039182166024820152604481018490527f0000000000000000000000000000000000000000000000000000000000000000909116906323b872dd90606401600060405180830381600087803b15801561066657600080fd5b505af115801561067a573d6000803e3d6000fd5b505050505050565b600081815260016020526040902060038101544210156106df5760405162461bcd60e51b8152602060048201526018602482015277105d58dd1a5bdb881a185cdb89dd08195b991959081e595d60421b6044820152606401610289565b60008160050154116107295760405162461bcd60e51b8152602060048201526013602482015272139bc8189a591cc81dd95c99481c1b1858d959606a1b6044820152606401610289565b600481810154600580840154600086815260016020819052604080832080546001600160a01b031990811682559281018490556002810184905560038101849055808801805490931690925593015590516323b872dd60e01b815230938101939093526001600160a01b0391821660248401819052604484018690529290917f000000000000000000000000000000000000000000000000000000000000000016906323b872dd90606401600060405180830381600087803b1580156107ee57600080fd5b505af1158015610802573d6000803e3d6000fd5b5050845461083f92506001600160a01b037f0000000000000000000000000000000000000000000000000000000000000000811692501683610de8565b816001600160a01b0316847fd2aa34a4fdbbc6dff6a3e56f46e0f3ae2a31d7785ff3487aa5c95c642acea5018360405161087b91815260200190565b60405180910390a350505050565b6040516331a9108f60e11b81526004810184905233906001600160a01b037f00000000000000000000000000000000000000000000000000000000000000001690636352211e90602401602060405180830381865afa1580156108f0573d6000803e3d6000fd5b505050506040513d601f19601f82011682018060405250810190610914919061120d565b6001600160a01b0316146109625760405162461bcd60e51b8152602060048201526015602482015274165bdd48191bdb89dd081bdddb881d1a1948139195605a1b6044820152606401610289565b600082116109b25760405162461bcd60e51b815260206004820152601f60248201527f5072696365206d7573742062652067726561746572207468616e207a65726f006044820152606401610289565b603c811015610a0e5760405162461bcd60e51b815260206004820152602260248201527f4475726174696f6e206d757374206265206174206c656173742031206d696e75604482015261746560f01b6064820152608401610289565b60405163020604bf60e21b81526004810184905230906001600160a01b037f0000000000000000000000000000000000000000000000000000000000000000169063081812fc90602401602060405180830381865afa158015610a75573d6000803e3d6000fd5b505050506040513d601f19601f82011682018060405250810190610a99919061120d565b6001600160a01b031614610aef5760405162461bcd60e51b815260206004820152601d60248201527f436f6e7472616374206e6f7420617070726f76656420666f72204e46540000006044820152606401610289565b6000610afb82426111e6565b60008581526001602081815260408084208054336001600160a01b03199182161782559381018a90556002810189905560038101869055600481018054909416909355600590920192909255805186815291820183905291925085917fd6eddd1118d71820909c1197aa966dbc15ed6f508554252169cc3d5ccac756ca910160405180910390a26040516323b872dd60e01b8152336004820152306024820152604481018590527f00000000000000000000000000000000000000000000000000000000000000006001600160a01b0316906323b872dd90606401600060405180830381600087803b158015610bf057600080fd5b505af1158015610c04573d6000803e3d6000fd5b5050505050505050565b610c16610e3a565b6001600160a01b038116610c7b5760405162461bcd60e51b815260206004820152602660248201527f4f776e61626c653a206e6577206f776e657220697320746865207a65726f206160448201526564647265737360d01b6064820152608401610289565b610c8481610e94565b50565b60008181526001602052604090206003810154421015610ce45760405162461bcd60e51b8152602060048201526018602482015277105d58dd1a5bdb881a185cdb89dd08195b991959081e595d60421b6044820152606401610289565b6004810154336001600160a01b0390911603610d425760405162461bcd60e51b815260206004820152601960248201527f596f7527726520746865206869676865737420626964646572000000000000006044820152606401610289565b336000908152600682016020526040902054610da05760405162461bcd60e51b815260206004820152601860248201527f596f7520686176656e277420706c6163656420612062696400000000000000006044820152606401610289565b33600081815260068301602052604081208054919055906103e5907f00000000000000000000000000000000000000000000000000000000000000006001600160a01b031690835b604080516001600160a01b038416602482015260448082018490528251808303909101815260649091019091526020810180516001600160e01b031663a9059cbb60e01b1790526103e5908490610ee4565b6000546001600160a01b031633146104d05760405162461bcd60e51b815260206004820181905260248201527f4f776e61626c653a2063616c6c6572206973206e6f7420746865206f776e65726044820152606401610289565b600080546001600160a01b038381166001600160a01b0319831681178455604051919092169283917f8be0079c531659141344cd1fd0a4f28419497f9722a3daafe3b4186f6b6457e09190a35050565b6000610f39826040518060400160405280602081526020017f5361666545524332303a206c6f772d6c6576656c2063616c6c206661696c6564815250856001600160a01b0316610fb69092919063ffffffff16565b8051909150156103e55780806020019051810190610f57919061122a565b6103e55760405162461bcd60e51b815260206004820152602a60248201527f5361666545524332303a204552433230206f7065726174696f6e20646964206e6044820152691bdd081cdd58d8d9595960b21b6064820152608401610289565b6060610fc58484600085610fcd565b949350505050565b60608247101561102e5760405162461bcd60e51b815260206004820152602660248201527f416464726573733a20696e73756666696369656e742062616c616e636520666f6044820152651c8818d85b1b60d21b6064820152608401610289565b600080866001600160a01b0316858760405161104a9190611270565b60006040518083038185875af1925050503d8060008114611087576040519150601f19603f3d011682016040523d82523d6000602084013e61108c565b606091505b509150915061109d878383876110a8565b979650505050505050565b60608315611117578251600003611110576001600160a01b0385163b6111105760405162461bcd60e51b815260206004820152601d60248201527f416464726573733a2063616c6c20746f206e6f6e2d636f6e74726163740000006044820152606401610289565b5081610fc5565b610fc5838381511561112c5781518083602001fd5b8060405162461bcd60e51b8152600401610289919061128c565b60006020828403121561115857600080fd5b5035919050565b6000806040838503121561117257600080fd5b50508035926020909101359150565b60008060006060848603121561119657600080fd5b505081359360208301359350604090920135919050565b6001600160a01b0381168114610c8457600080fd5b6000602082840312156111d457600080fd5b81356111df816111ad565b9392505050565b8082018082111561120757634e487b7160e01b600052601160045260246000fd5b92915050565b60006020828403121561121f57600080fd5b81516111df816111ad565b60006020828403121561123c57600080fd5b815180151581146111df57600080fd5b60005b8381101561126757818101518382015260200161124f565b50506000910152565b6000825161128281846020870161124c565b9190910192915050565b60208152600082518060208401526112ab81604085016020870161124c565b601f01601f1916919091016040019291505056fea264697066735822122081b9d49fedbb552789b06988566f304539cd2ff40440395d135503a627c6537664736f6c63430008120033",
    "sourcePath": "d:/abhi/NFT-Auction-Assignment/contracts/marketplace.sol",
    "compiler": {
        "name": "solc",
        "version": "0.8.18+commit.87f61d96"
    },
    "functionHashes": {
        "auctions(uint256)": "571a26a0",
        "bid(uint256,uint256)": "598647f8",
        "cancelAuction(uint256)": "96b5a755",
        "createAuction(uint256,uint256,uint256)": "cda4beef",
        "endAuction(uint256)": "b9a2de3a",
        "nft()": "47ccca02",
        "owner()": "8da5cb5b",
        "paymentToken()": "3013ce29",
        "renounceOwnership()": "715018a6",
        "retrieveFunds(uint256)": "fc41491e",
        "transferOwnership(address)": "f2fde38b"
    },
    "gasEstimates": {
        "creation": {
            "codeDepositCost": "970600",
            "executionCost": "infinite",
            "totalCost": "infinite"
        },
        "external": {
            "auctions(uint256)": "13241",
            "bid(uint256,uint256)": "infinite",
            "cancelAuction(uint256)": "infinite",
            "createAuction(uint256,uint256,uint256)": "infinite",
            "endAuction(uint256)": "infinite",
            "nft()": "infinite",
            "owner()": "2320",
            "paymentToken()": "infinite",
            "renounceOwnership()": "infinite",
            "retrieveFunds(uint256)": "infinite",
            "transferOwnership(address)": "infinite"
        }
    }
}